:020000040800F2
:100000009805002045010008210900081909000889
:100010001D090008FD060008351300080000000057
:10002000000000000000000000000000350D000886
:100030000107000800000000A9090008210E0008BF
:100040005F0100085F0100085F0100085F01000810
:100050005F0100085F0100085F0100085F01000800
:100060005F0100085F0100085F0100085F010008F0
:100070005F0100085F0100085F0100085F010008E0
:100080005F0100085F0100085F0100085F010008D0
:100090005F0100085F0100085F0100085F010008C0
:1000A0005F0100085F0100085F0100085F010008B0
:1000B000850E00085F0100085F0100085F0100086D
:1000C0005F0100085F0100085F0100085F01000890
:1000D0005F0100085F0100085F0100085F01000880
:1000E0005F0100085F0100085F0100085F01000870
:1000F0005F0100085F0100085F0100085F01000860
:100100005F0100085F0100085F0100085F0100084F
:100110005F0100085F0100085F0100085F0100083F
:100120005F0100085F0100085F0100085F0100082F
:10013000DFF80CD000F0D0FA00480047C9240008CE
:10014000980500200648804706480047FEE7FEE77E
:10015000FEE7FEE7FEE7FEE7FEE7FEE7FEE7FEE777
:10016000250E0008310100082DE9FE4F804681EA86
:100170000300C00F0C46009021F0004123F0004521
:10018000B8EB0200A94105D24046214690461C46E4
:100190000B46024623F00040104347D0270DC7F31B
:1001A0000A00C3F30A510290401A019040286BDA0A
:1001B000C3F3130040F4801B0098924620B1002343
:1001C000D2EB030A63EB0B0B01985946C0F14002D6
:1001D000504600F0DAF906460D4650465946019A57
:1001E00000F0F2F910EB08006141002487EA115297
:1001F00084EAE7731A4340D0009A62B3019A012A55
:100200004FEA075215DC001B61EB02014FF0004280
:1002100002EA0752CDE90042001C41F58011324646
:100220002B4600F0F2F903B0BDE8F08F40462146BE
:10023000F9E7001B61EB0201001C41F58013001877
:100240005B412018A2F5001747EB030140EAD57087
:10025000B6196D4111E06D084FEA360645EAC075E2
:100260004FEA0752001B61EB0201001C41F58011AF
:1002700049084FEA30000019514132462B4603B07D
:10028000BDE8F04F00F0B2B9009801224000002311
:10029000D0EB020263EBE073009821464FEAE07472
:1002A000B8EB000061EB0401E9E783F000435BE792
:1002B00081F0004158E72DE9FE4F81EA030404F084
:1002C000004421F0004100944FF0000B23F0004364
:1002D00050EA01045ED052EA03045BD0C3F30A542F
:1002E000C1F30A552C44A4F2F3340194A0FB025448
:1002F000C1F3130141F48011C3F3130343F48013DA
:1003000001FB024400FB034E840A970A44EA81542D
:1003100047EA8357A4FB076802958D0A05FB07850A
:100320004FEA932C04FB0C542705029D4FEA065814
:1003300047EA1637B5EB08056EEB070C870E920EF1
:1003400047EA811742EA8312A7FB0201B6EB0B01D1
:1003500064EB00042B0D43EA0C335E1844EB1C5095
:10036000DA465146E7FB0201C5F313044FEA0B33AB
:1003700043EA14534FEA0432019C43EA0603A4F112
:100380000C040294009CCDE900B400F03EF903B0E7
:10039000BDE8F08F00200146F9E72DE9F04D81EA34
:1003A000030404F0004B21F0004514464FF0000A0E
:1003B00023F0004150EA050220D054EA01021DD08A
:1003C000C5F30A570246C5F31303C1F31300C1F383
:1003D0000A5640F4801543F48013A7EB0608101B5F
:1003E000D64608F2FD3873EB050002D308F1010888
:1003F00001E092185B41B8F1000F03DA00200146DA
:10040000BDE8F08D00204FF48011064684460EE0D2
:10041000171B73EB050705D3121B63EB050306439C
:100420004CEA010C49084FEA300092185B4150EA4F
:100430000107EDD152EA030012D082EA040083EAF8
:100440000501084305D0101BAB4106D20122002351
:1004500006E000224FF0004302E06FF0010253106B
:100460001AEB06004CEB085110EB0A0041EB0B01B4
:10047000BDE8F04D00F0BAB80EB5C10F80EAE070EB
:100480000844CA07002140F233438DE80E000A46B3
:100490000B4600F0BAF803B000BD00F0004220F0B7
:1004A0000040C10DC0F3160040F400007F2901DABE
:1004B00000207047962903DCC1F19601C84001E095
:1004C00096398840002AF4D04042704730B5041E67
:1004D00071F1000404DB4FF00044404264EB010181
:1004E000141E73F1000405DB1C464FF0004352421A
:1004F00063EB0403994208BF904230BD30B50B4610
:10050000014600202022012409E021FA02F59D4243
:1005100005D303FA02F5491B04FA02F52844151E17
:10052000A2F10102F1DC30BD2DE9F05F05460020AB
:1005300092469B4688460646814640241BE0284654
:1005400041464746224600F02FF853465A46C01A05
:10055000914110D311461846224600F016F82D1A84
:1005600067EB01084F4622460120002100F00DF8FC
:1005700017EB00094E41201EA4F10104DFDC4846C0
:1005800031462A464346BDE8F09F202A04DB203A44
:1005900000FA02F1002070479140C2F1200320FAD6
:1005A00003F3194390407047202A04DB203A21FAD4
:1005B00002F00021704721FA02F3D040C2F120027C
:1005C0009140084319467047202A06DBCB17203A92
:1005D00041FA02F043EAE07306E041FA02F3D04048
:1005E000C2F12002914008431946704710B5141E0D
:1005F00073F1000408DA401C41F1000192185B41DC
:100600001A4301D120F0010010BD2DE9F04D9246B2
:100610009B4611B1B1FA81F202E0B0FA80F22032C9
:100620009046FFF7B2FF04460F4640EA0A0041EA4F
:100630000B0153465A46084313D0114653EA0100B2
:1006400019D0C8F140025046FFF7AEFF05460E46EE
:10065000504659464246FFF798FF084305D001200F
:1006600004E020463946BDE8F08D0020054346EA07
:10067000E0762C4337430A986305E40AA0EB0800B0
:100680000022FD0A44EA47540A3002D50020014600
:10069000E9E7010510196941DDE9084500196941DB
:1006A000BDE8F04DA2E7C1F30A52C1F3130140F2D5
:1006B000FF3341F480119A4202DA0020014670476C
:1006C00040F233439A42A2F2334202DC5242FFF735
:1006D0006BBFFFF75ABF0000064C074D06E0E0680D
:1006E00040F0010394E8070098471034AC42F6D379
:1006F000FFF722FD8C280008AC28000800BFFEE7A9
:10070000704700002DE9F04107460C4615461E468D
:1007100004480780C47085700146304600F024F814
:10072000BDE8F0810400002030B500228B071C0FCB
:100730000F2303FA04F20B4B8C1053F8243093432D
:10074000084C8D1044F8253023468C1053F8243083
:100750008C07240F00FA04F42343024C8D1044F854
:10076000253030BD080001402DE9F041024600254A
:100770000026002000230024002791F803C00CF07D
:100780000F0591F803C00CF0100CBCF1000F03D062
:1007900091F802C04CEA050591F800C0BCF1000FC9
:1007A00031D0146800202BE04FF0010C0CFA00F35C
:1007B000B1F800C00CEA03069E4220D183004FF03E
:1007C0000F0C0CFA03F7BC4305FA03FC4CEA0404D3
:1007D00091F803C0BCF1280F06D14FF0010C0CFAC0
:1007E00000FCC2F814C00AE091F803C0BCF1480F45
:1007F00005D14FF0010C0CFA00FCC2F810C0401CEF
:100800000828D1D31460B1F800C0BCF1FF0F34DD6B
:10081000546800202EE000F1080C4FF0010808FA9F
:100820000CF3B1F800C00CEA03069E4221D183000C
:100830004FF00F0C0CFA03F7BC4305FA03FC4CEA2B
:10084000040491F803C0BCF1280F05D100F1080C95
:1008500008FA0CF8C2F8148091F803C0BCF1480FF4
:1008600007D100F1080C4FF0010808FA0CF8C2F8A3
:100870001080401C0828CED35460BDE8F0810000F1
:10088000F0B50A46002300240021002500F00046B0
:10089000B6F1004F02D11D4EF16901E01B4E7168A7
:1008A000C0F3034583B200F44016B6F5401F08D1EB
:1008B00021F07061154E766826F07066134F7E60E9
:1008C00012E000F48016B6F5801F06D1032606FA62
:1008D00005F4A14341F0706106E0460D360103FACC
:1008E00006F6B14341F0706122B1460D360103FABC
:1008F00006F6314300F00046B6F1004F02D1034E38
:10090000F16101E0014E7160F0BD000000000140A6
:10091000416170470161704700BFFEE700BFFEE71D
:100920007047000070B5002100230F22C47804B383
:10093000154C246804F4E064C4F5E064210AC1F1B4
:100940000403CA40447804FA03F184781440214334
:1009500009010E4C0678A155047804F01F05012406
:10096000AC4005786D11AD0005F1E025C5F80041FA
:1009700009E0047804F01F050124AC40044D06781A
:10098000761145F8264070BD0CED00E000E400E073
:1009900080E100E002490143024A11607047000013
:1009A0000000FA050CED00E07047000029B1064A8E
:1009B00052690243044B5A6104E0034A526982437C
:1009C000014B5A61704700000010024029B1064AED
:1009D000D2690243044BDA6104E0034AD2698243DC
:1009E000014BDA61704700000010024029B1064A4D
:1009F00012690243044B1A6104E0034A12698243FC
:100A0000014B1A61704700000010024029B1064AEC
:100A100092690243044B9A6104E0034A926982435B
:100A2000014B9A61704700000010024029B1064A4C
:100A3000D2680243044BDA6004E0034AD26882437E
:100A4000014BDA6070470000001002400F48006858
:100A500040F001000D490860084640680C49084014
:100A60000A494860084600680A4908400749086082
:100A70000846006820F4802008600846406820F49A
:100A8000FE0048604FF41F0088607047001002406D
:100A90000000FFF8FFFFF6FE30B500210022002421
:100AA00000232D4D6D6805F00C0121B1042905D0FE
:100AB000082923D105E0294D056022E0274D056076
:100AC0001FE0254D6D6805F47012234D6D6805F427
:100AD0008034022505EB92421CB9214D5543056037
:100AE0000BE01D4D6D6805F400351DB11C4D5543DF
:100AF000056002E0194D5543056002E0174D0560A1
:100B000000BF00BF144D6D6805F0F0010909154DD7
:100B10006B5C0568DD4045600F4D6D6805F4E06174
:100B2000090A104D6B5C4568DD4085600A4D6D68B3
:100B300005F46051C90A0B4D6B5C4568DD40C5602A
:100B4000054D6D6805F44041890B074D6B5CC56828
:100B5000B5FBF3F5056130BD0010024000127A00CC
:100B600000093D00B8000020C800002010B5014673
:100B70000022002300204A11012A02D1094C2368D7
:100B800006E0022A02D1074C236A01E0054C636AA1
:100B900001F01F02012494401C400CB1012000E030
:100BA000002010BD001002400248406800F00C0018
:100BB000704700000010024001460020034A5068C0
:100BC00020F0F00008435060704700000010024021
:100BD0001149096821F480310F4A116011460968F2
:100BE00021F480211160B0F5803F03D0B0F5802F53
:100BF0000ED106E00849096841F48031064A1160C7
:100C000007E00549096841F4A021034A116000E0AA
:100C100000BF00BF704700000010024001460020E6
:100C2000034A506820F4E0600843506070470000B9
:100C30000010024001460020034A506820F4605032
:100C400040EAC10050607047001002400149086648
:100C5000704700000000424202460020044B5868E2
:100C600020F47C1042EA01031843014B586070479E
:100C70000010024001460020034A506820F00300A3
:100C800008435060704700000010024038B5002053
:100C900000900024002500BF3120FFF767FF0546C4
:100CA0000098401C00900098B0F5A06F01D0002D76
:100CB000F2D03120FFF75AFF08B1012400E00024F0
:100CC000204638BD21B1028842F04002028004E093
:100CD00002884FF6BF731A40028070470246002018
:100CE00013890B400BB1012000E000207047014642
:100CF000888970478181704710B50022028802F40C
:100D000041520B884C8823438C882343CC8823434F
:100D10000C8923434C8923438C892343CC89234367
:100D20001A430280838B4FF2FF74234083830B8A24
:100D3000038210BD704710B500F002F810BD00002E
:100D40000CB50020019000903348006840F48030DA
:100D50003149086000BF3048006800F4003000905E
:100D60000198401C0190009818B90198B0F5A06F47
:100D7000F1D12948006800F4003010B10120009042
:100D800001E0002000900098012843D1234800682A
:100D900040F01000214908600846006820F0030078
:100DA00008600846006840F0020008601A48406881
:100DB000194948600846406848600846406840F461
:100DC000806048600846406820F47C10486008460F
:100DD000406840F4E81048600846006840F08070C1
:100DE000086000BF0C48006800F000700028F9D0CF
:100DF0000948406820F003000749486008464068F9
:100E000040F00200486000BF0348406800F00C005A
:100E10000828F9D10CBD000000100240002002405B
:100E20007047000010B51348006840F001001149F8
:100E3000086008464068104908400E494860084666
:100E400000680E4908400B4908600846006820F415
:100E5000802008600846406820F4FE0048604FF497
:100E60001F008860FFF767FF4FF0006004490860CB
:100E700010BD0000001002400000FFF8FFFFF6FE6A
:100E800008ED00E010B50121880700F01CF940B121
:100E90000121880700F00BF801200249086001F0E9
:100EA000E3FA10BD00000020CA4302827047CA4323
:100EB0000282704721B1028842F00102028004E000
:100EC00002884FF6FE731A400280704710B5044640
:100ED0006848844208D10121C014FFF7A7FD002112
:100EE000E014FFF7A3FDC4E0B4F1804F08D1012165
:100EF0000846FFF77BFD00210120FFF777FDB8E0F2
:100F00005D48844208D101210220FFF76FFD0021D6
:100F10000220FFF76BFDACE05848844208D1012164
:100F20000420FFF763FD00210420FFF75FFDA0E030
:100F30005348844208D101210820FFF757FD0021C2
:100F40000820FFF753FD94E04E48844208D1012168
:100F50001020FFF74BFD00211020FFF747FD88E030
:100F60004948844208D101212020FFF73FFD00219C
:100F70002020FFF73BFD7CE04448844208D101215A
:100F80004014FFF753FD00216014FFF74FFD70E0A0
:100F90003F48844209D10121C804FFF747FD0021E1
:100FA0004FF40020FFF742FD63E03A48844209D144
:100FB00001210805FFF73AFD00214FF48010FFF7EB
:100FC00035FD56E03448844209D101214805FFF738
:100FD0002DFD00214FF40010FFF728FD49E02F48B8
:100FE000844208D101214020FFF700FD002140206C
:100FF000FFF7FCFC3DE02A48844208D10121802013
:10100000FFF7F4FC00218020FFF7F0FC31E02548D9
:10101000844208D101218015FFF7E8FC0021A015CA
:10102000FFF7E4FC25E02048844209D101210804AF
:10103000FFF7FCFC00214FF48030FFF7F7FC18E0CD
:101040001A48844209D101214804FFF7EFFC00212E
:101050004FF40030FFF7EAFC0BE01548844208D15A
:1010600001218804FFF7E2FC00214FF48020FFF704
:10107000DDFC10BD002C01400004004000080040D1
:10108000000C0040001000400014004000340140FB
:10109000004C014000500140005401400018004045
:1010A000001C00400020004000400140004401407E
:1010B0000048014002460020138A0B400BB101207A
:1010C00000E00020704730B50246002000230024D5
:1010D000158A05EA0103958905EA010413B10CB1EB
:1010E000012000E0002030BD1AB183890B438381C9
:1010F00002E083898B4383817047000000220288CD
:101100001D4B98420ED01D4B98420BD0B0F1804F32
:1011100008D01B4B984205D01A4B984202D01A4B6C
:10112000984204D14FF68F731A404B881A43174BDD
:10113000984207D0164B984204D04FF6FF431A400E
:10114000CB881A4302808B8883850B8803850A4BE2
:1011500098420BD0094B984208D00E4B984205D0CC
:101160000D4B984202D00D4B984201D10B7A038669
:101170000123838270470000002C014000340140AD
:101180000004004000080040000C00400010004037
:10119000001400400040014000440140004801406C
:1011A0004FF6FF71818000210180C1804180017272
:1011B000704701F40072B2F5007F00D100BFCA434E
:1011C0000280704721B1828942F40052828104E09A
:1011D00082894DF6FF731A40828170471AB1838A63
:1011E0000B43838202E0838A8B43838270470246EB
:1011F0000020B1F5007F00D100BF13880B400BB178
:10120000012000E000207047F0B5034600240026CE
:101210000025002040F66A17B94200D100BF1846E9
:10122000C1F3421401F01F06012707FA06F5012C4D
:1012300001D10C3004E0022C01D1103000E0143058
:101240001AB107682F43076002E00768AF430760E1
:10125000F0BD00002DE9F04786B005460E4600249B
:10126000A24600BFA1460027B08900B100BF2F46AB
:101270002C8A4CF6FF700440F08804432C82AC8921
:101280004EF6F3100440B088318908437189084351
:101290000443AC81AC8A4FF6FF400440B08904435C
:1012A000AC8201A8FFF7F8FB1F48874202D1DDF8A6
:1012B00010A001E0DDF80CA0A88900F4004040B1C6
:1012C0000AEBCA0000EB0A1031684900B0FBF1F8E4
:1012D00007E00AEBCA0000EB0A1031688900B0FB96
:1012E000F1F86420B8FBF0F004012009642101FB4F
:1012F0001089A88900F4004040B1322000EBC900F9
:10130000B0FBF1F000F00700044308E0322000EBEE
:1013100009106421B0FBF1F000F00F0004432C81B0
:1013200006B0BDE8F087000000380140C1F30802B4
:101330008280704700BFFEE70FB4054B10B503A9CC
:10134000044A029800F0DCF810BC5DF814FB0000C1
:1013500065210008CC0000207CB5491E1C461546BE
:10136000CDE90001044B6A462146284600F028FAE0
:10137000009A002111707CBDEF1E000802E008C831
:10138000121F08C1002AFAD170477047002001E0FF
:1013900001C1121F002AFBD1704700002DE9FF5F39
:1013A000DDE90220010DDDF838B0024318D044F623
:1013B0001050A1F2FF3141430D140F98012820D0A5
:1013C000A5EB0B00401C5FEA000A4FF00004474EFB
:1013D000DFF81C91A046504616D5CAF1000728E058
:1013E0000F98012443A2012808D0002100980F9BE8
:1013F000C0E90021C0E90243BDE8FF9F6FEA0B018D
:10140000F4E7CBF10000DEE7074612E0F80707D06B
:101410002246334640464946FEF74DFF8046894600
:101420002246334610461946FEF745FF04460E464F
:101430007F10002FEAD1DDE90201BAF1000F424628
:101440004B4602DAFEF737FF01E0FEF7A6FF04463F
:101450000E460022284BFFF739F803D84FF0FF3033
:10146000014607E00022254B20463146FEF77CFE70
:10147000FFF719F9102409E0002C0ADB0A220023E7
:10148000FFF752F8019B30321A55641E50EA0102F0
:10149000F2D1641C019AC4F1110314440F9A012A79
:1014A00003D0012208430DD10AE0084304D00020F4
:1014B0004FF0110B0F9080E7A3EB0B056D1E0DE0B5
:1014C0005B4504DD4FF0000205F1010504E003DA9D
:1014D0004FF00002A5F10105002AECD000980F9909
:1014E000C0E90231C0E9004586E700000000244061
:1014F0000000F03F300000000000F0430000E03F3B
:101500002DE9FF4F8DB09B460F460446002606E0AE
:1015100025280BD05A460F999047641C761C2078DA
:101520000028F5D111B03046BDE8F08F0025A8465F
:101530000122984900E0054314F8013F203B02FADC
:1015400003F00842F7D120782E2817D114F8010FA4
:1015500045F004052A280ED06FF02F022078A0F164
:10156000300109290AD808EB880102EB410100EBA0
:101570000108641CF2E757F8048B641C20786C287F
:101580000DD004DC4C2812D06A2811D104E0742854
:101590000DD07A280CD10AE045F4001507E06178F7
:1015A00045F48015814202D1641C05F58015641C48
:1015B0002278692A45D008DC002AB3D0582A69D09D
:1015C000632A10D0642A08D13BE0702A67D0732ABE
:1015D00013D0752A5CD0782A5CD010465A460F99F1
:1015E0009047761CD3E017F8040B8DF8000000201C
:1015F0008DF80100E946012003E057F8049B4FF005
:10160000FF3069074FF0000501D40AE06D1C454525
:101610000DDA8542FADB19F805100029F6D106E04B
:101620006D1C8542FCDB19F805100029F8D12E4409
:1016300004E019F8010B5A460F9990476D1EF8D235
:10164000A5E00A200021CDE90801C5F302500228D7
:101650000DD001CFC117031E71F100030DDA4FF059
:10166000000CD0EB0C006CEB01012D2308E0FF1DFA
:1016700027F00707F7E80201EDE72B0504D52B2338
:101680008DF8283001233BE0EB0739D02023F7E722
:101690000A2000E010200021CDE9080107E0102019
:1016A000002145F00405CDE908014FF00808C5F315
:1016B000025002280FD001CF00214FF0000A2B0763
:1016C0001FD5702A0DD0DDE908C38CF0100C5CEA40
:1016D000030C0CD015E0FF1D27F00707F7E8020107
:1016E000EBE740228DF828204FF0010A0BE050EA8A
:1016F000010306D030238DF828308DF829200223ED
:101700009A46582A04D024A20DF120090B9209E030
:1017100026A2F9E7DDE90823FEF706FF0B9B9B5C99
:1017200009F8013D50EA0102F4D1ADEB0900203087
:101730000890680701D44FF001080899884502DD38
:10174000A8EB010000E000208046002506E00AA882
:101750005A46405D0F9990476D1C761C5545F6DB47
:1017600004E030205A460F999047761CB8F10001EA
:10177000A8F10108F5DC05E019F8010B5A460F99AC
:101780009047761C0899481E08900029F4DC641CD8
:10179000C5E60000092801003031323334353637D0
:1017A00038396162636465660000000030313233AD
:1017B000343536373839414243444546000000004D
:1017C0002DE9FF4F95B09B468946064600250FE25E
:1017D000252877D100242746F84A0121059400E006
:1017E000044316F8013F203B01FA03F01042F7D101
:1017F00030782A2811D06FF02F033078A0F1300212
:10180000092A16D8059A44F0020402EB820203EB7F
:1018100042021044761C0590EFE759F8042B05921C
:10182000002A03DA504244F40054059044F00204C4
:10183000761C30782E2816D116F8010F44F00404D7
:101840002A280DD06FF02F023078A0F13003092B39
:1018500009D807EB870302EB4303C718761CF3E7AD
:1018600059F8047B761C30786C280FD006DC4C28A5
:1018700017D068280DD06A2814D104E0742810D03D
:101880007A280FD10DE044F400140AE044F48014E7
:1018900001E044F440147278824202D104F58014CD
:1018A000761C761C307866280BD013DC582877D04D
:1018B00009DC002875D04528F6D04628F4D0472802
:1018C0001AD19DE118E0632835D0642879D06528C5
:1018D00012D195E1702873D008DC6728F1D069280F
:1018E0006FD06E280DD06F2806D1B5E073282CD0AC
:1018F000752875D0782874D05A46179990476D1C72
:1019000075E1C4F30250022809D003280DD0D9F89C
:10191000001004280DD00D6009F1040967E1D9F821
:101920000010EA17C1E90052F6E7D9F800100D805F
:10193000F2E70D70F0E719F8041B8DF80010002095
:101940008DF80100EA46012003E059F804AB4FF09E
:10195000FF3061074FF0000102D40DE008F10101F2
:101960008846B9420FDA8045F8DB1AF808100029DA
:10197000F4D108E008F1010188468142FADB1AF847
:1019800008100029F6D105985B46A0EB0807214610
:101990003846179A00F094FA284400EB080507E04F
:1019A0004DE029E10DE01AF8010B5A4617999047CE
:1019B000B8F10108F7D25B4621463846179A13E181
:1019C00042E00A220092C4F302524FF0000A022AB7
:1019D00008D059F804CB032A4FEAEC710AD00DE085
:1019E00029E02AE009F1070121F00702F2E802C12B
:1019F000914609E00FFA8CFC4FEAEC71042A03D1FE
:101A00004FFA8CFC4FEAEC71002907DA0A460021F4
:101A1000DCF1000C61EB02012D2202E0220504D56D
:101A20002B228DF80420012203E0E20701D02022BE
:101A3000F7E7904659E00A2102E010220DE010215C
:101A40004FF0000A00910BE010224FF0000A44F022
:101A500004040827009203E008224FF0000A0092D5
:101A6000C4F30252022A05D059F804CB0021032AFC
:101A700008D009E009F1070121F00702F2E802C1EC
:101A8000914605E01FFA8CFC042A01D10CF0FF0CF2
:101A90004FF00008220728D5702806D0009B83F05D
:101AA000100353EA0A0305D00EE040228DF804200B
:101AB000012208E05CEA010206D030228DF8042001
:101AC0008DF8050002229046009B83F0080353EA3C
:101AD0000A030AD15CEA010201D1620705D530226E
:101AE0008DF804204FF001087F1E582804D034A040
:101AF00003900EA802900DE036A0F9E75346604629
:101B0000009AFEF711FD84460398825C0298401EFD
:101B1000029002705CEA0100F0D1029806A9081A4E
:101B200000F1200A600702D524F4803400E0012788
:101B3000574502DDA7EB0A0000E0002000EB0A0198
:101B4000009005984144401A0590E00306D45B4696
:101B50002146179A059800F0B3F90544002706E0DE
:101B600001A85A46C05D179990476D1C7F1C4745D8
:101B7000F6DBE0030CD55B462146179A059800F08A
:101B80009FF9054404E030205A46179990476D1C90
:101B90000099481E00900029F5DC08E0029802999F
:101BA0005A460078491C0291179990476D1CBAF16A
:101BB0000001AAF1010AF1DC65E100000928010039
:101BC00030313233343536373839616263646566B3
:101BD0000000000030313233343536373839414275
:101BE000434445460000000000F058F90544761CC7
:101BF000307800287FF4ECAD19B02846BDE8F08FAE
:101C0000620700D4062709F1070222F0070CFCE85E
:101C10000223E14603F000485FEA080C02D00FF20D
:101C2000702C0DE05FEA045C02D50FF2682C07E02F
:101C30005FEAC47C02D00FF2602C01E0AFF2700CBE
:101C40004FF0FF3823F00043CDF850C065280CD08A
:101C500006DC452809D046281DD047283DD13DE067
:101C6000662818D067287ED138E00021112F01DBCB
:101C7000112000E0781CCDE9000106A90EA8FFF7AD
:101C80008DFBDDE90F010E9A03910021009207F10F
:101C9000010A04914DE04FF000400097CDE901109A
:101CA00006A90EA8FFF77AFBDDE90F0203920E9B4F
:101CB00011990022DDF80CA00093049211B9791C4F
:101CC00000EB010AB7EB0A0004D4C0F1FF3007F1C2
:101CD000010A0490AAEB0700019044E0012F00DA0A
:101CE00001270021112F01DD112000E03846CDE948
:101CF000000106A90EA8FFF751FBDDE90F010E9ABE
:101D00000391002104910092BA4621070CD4039953
:101D1000514500DA8A46BAF1010F05DD009AAAF1B1
:101D20000101515C302908D0B84202DA10F1040FE9
:101D300006DA0121CDE9011015E0AAF10101E9E778
:101D4000002805DC049901440491AAEB000102E09B
:101D5000411C514500DD8A460499401A401C0190FF
:101D60004FF000400290200704D40198504501DB59
:101D7000CDF8048000208DF84F0002980DF14F0738
:101D8000B0F1004F25D02B200E9002984FF00208A2
:101D900000280CDA404202902D200E9007E00A2124
:101DA0000298FEF7ABFB3031029007F8011DB8F145
:101DB0000001A8F10108F2DC02980028EFD1791E99
:101DC0000E980870307800F0200040F0450007F8C9
:101DD000020D12A8C01B00F107081498007800B18A
:101DE000012000EB0A01019801EBE07105984144E4
:101DF000401A401E0590E00306D45B462146179A20
:101E0000059800F05DF805441498007818B15A461A
:101E1000179990476D1CE00324D55B462146179A1D
:101E2000059800F04DF805441CE00498002807DBF5
:101E3000DDE90301884203DD0098405C179901E069
:101E4000179930205A469047049805F10105401C27
:101E500004900198401E019004D12E205A461799F3
:101E600090476D1CBAF10001AAF1010ADDDC05E022
:101E700017F8010B5A46179990476D1CB8F10001ED
:101E8000A8F10108F4DC5B462146179A0598ABE6F9
:101E90002D0000002B000000200000002DE9F04183
:101EA000044600251E461746880404D405E039463A
:101EB0002020B0476D1C641EF9D52846BDE8F0818E
:101EC0002DE9F041044600251E469046C80301D581
:101ED000302700E02027880404D505E04146384635
:101EE000B0476D1C641EF9D52846BDE8F0814A68EC
:101EF000002A06D00A68531C0B6010704868401E08
:101F000048607047F8B54848C079A0280BDB4649BF
:101F1000C979C1F16E0101EB81014800FEF7ACFA0D
:101F2000424A03C213E04048C0795A280BDC3E49BC
:101F3000C979C1F16E0101EB81014800FEF79CFAFD
:101F40003A4A03C203E00021384A11605160364822
:101F50008079822809DB34488079C0F1820000EB67
:101F6000800040003249086010E02F4880796428E2
:101F700009DC2D488079C0F1820000EB8000400030
:101F80002B49086002E00020294908602648407972
:101F9000822809DB24484079C0F16E0000EB800004
:101FA00040002449086010E01F484079642809DC9B
:101FB0001D484079C0F16E0000EB800040001D49D3
:101FC000086002E000201B4908601B498868FEF792
:101FD00064FA044618494868FEF75FFA0546164950
:101FE0000868FEF75AFA06462B46324613A11748F0
:101FF000009400F0A1FA10498868FEF74EFA0446F2
:102000000D494868FEF749FA05460B490868FEF78E
:1020100044FA06462B4632460DA11248009400F0C1
:102020008BFA0120F8BD0000680100209800002014
:102030005C000020580000208801002032762564D2
:102040000D357625640D337625640D00004400407F
:102050003576256420203376256420203276256469
:102060000A000000003801403EB504460025012C5E
:1020700036DD01212020FEF7A9FC0020ADF8060086
:10208000ADF80200601E80B2ADF8040041F61F40BA
:10209000ADF8000000208DF8080069461148FFF7F0
:1020A0002DF801210F48FEF7FFFE0FE001210D483A
:1020B000FEF700FF01210B48FEF7FCFF012805D1C8
:1020C000681CC5B201210748FEF7EEFE012DEDDBCD
:1020D00001210448FEF7E8FE00210248FEF7EAFE6F
:1020E0003EBD0000001400403EB504460025012C12
:1020F00035D901212020FEF769FC0020ADF806004B
:10210000ADF80200601E80B2ADF804004720ADF8C3
:10211000000000208DF8080069461148FEF7EEFF28
:1021200001210F48FEF7C0FE0FE001210C48FEF729
:10213000C1FE01210A48FEF7BDFF012805D1681C38
:10214000C5B201210648FEF7AFFE012DEDDB0121EE
:102150000348FEF7A9FE00210148FEF7ABFE3EBD95
:102160000014004070B504460D4600BF40210548EC
:10217000FFF73DF80028F9D0E1B20248FFF7D6F8A2
:10218000204670BD0048004010B501210420FEF734
:1021900077FB4C4B032204218020FEF7B3FA494B16
:1021A000032218214020FEF7ADFA01210820FEF796
:1021B00067FB454B032218212020FEF7A3FA424B70
:1021C000032204214020FEF79DFA3E4B03221821F2
:1021D0001815FEF797FA3B4B032204214802FEF73D
:1021E00091FA384B032204210803FEF78BFA354B92
:1021F000032210210802FEF785FA324B0322182130
:102200004FF42040FEF77EFA304B032210210120CC
:10221000FEF778FA2D4B032210210220FEF772FA06
:102220002B4B032210210801FEF76CFA284B0322E6
:1022300010218020FEF766FA244B0322042120207F
:10224000FEF760FA214B032210210846FEF75AFAE6
:102250001E4B032210210820FEF754FA0121080327
:10226000FEF70EFB184B032204211003FEF74AFA77
:10227000184B032204211046FEF744FA134B0322A5
:102280001021C801FEF73EFA104B032210218801ED
:10229000FEF738FA104B032204210220FEF732FA2F
:1022A00001210520FEF740FA084B03221021080205
:1022B000FEF728FA054B032210214802FEF722FA06
:1022C00010BD0000000C014000140140002001403E
:1022D0000018014000080140001C01402DE9F041B8
:1022E0000026002500279AE04FF480514E48FEF763
:1022F0000FFB0520FFF7F8FE00240FE04B48015DBF
:102300004B48FEF7F7FC00BF01214948FEF7E6FC09
:102310000028F9D04648FEF7EAFC641C042CEDDDE9
:102320004FF480514048FEF7F5FA0520FFF7DCFE38
:102330004FF480513C48FEF7EBFA0520FFF7D4FE3E
:1023400000241DE03B48015D3948FEF7D3FC00BF87
:1023500001213748FEF7C2FC0028F9D0012C0BD12F
:102360003348FEF7C4FCC5B2FF2D08D12A4632A17E
:10237000354800F0E1F802E02D48FEF7B8FC641C97
:10238000082CDFDD4FF480512748FEF7C3FA052003
:10239000FFF7AAFE4FF480512348FEF7B9FA052053
:1023A000FFF7A2FE002420E02848015D2048FEF748
:1023B000A1FC00BF01211E48FEF790FC0028F9D0C7
:1023C000012C0ED11A48FEF792FCC7B22A461AA178
:1023D0001D4800F0B1F83A461DA11B4800F0ACF8CA
:1023E00002E01348FEF783FC641C082CDCDD4FF48C
:1023F00080510D48FEF78EFA0520FFF775FEFF2D80
:1024000009D0761C642E03D14FF0FF30BDE8F08177
:102410006420FFF729FE294607A0FEF78DFFFF2F56
:102420007FF462AF0020F1E7000C014018000020AB
:10243000003800401D0000205053585F416E61205D
:102440003D20307825780A00003801402F00002018
:102450005053585F416E615F636865636B203D2038
:10246000307825780A00000010B54FF480511248EA
:10247000FEF74EFA0520FFF737FE002411E00F4863
:10248000015D0F48FEF736FC00BF01210C48FEF746
:1024900025FC0028F9D00A48FEF729FC094908550F
:1024A000641C092CEBDB4FF480510348FEF732FA31
:1024B0000520FFF719FE10BD000C0140260000208A
:1024C000003800406801002000F0B0F8FFF75CFE23
:1024D00000F058F900F07CF900F074F800F0FCF816
:1024E000FFF7FCFE0446002C05DA0BA1104800F0B3
:1024F00023F800BFFEE701218807FEF7DBFC09E0B7
:1025000000BF0C4800680028FBD000200949086083
:10251000FFF7F8FCF4E7000068616E646C65206901
:102520006E6974206661696C757265212100000016
:1025300000380140000000200FB430B59BB00546C4
:10254000002420A80090652101A8009B1F9AFEF797
:1025500003FF80212846FEF72CFE26E001A8005D3F
:102560000A2813D12046621CD4B201AA115C284665
:10257000FEF7DCFE00BF80212846FEF738FE00286B
:10258000F9D00D212846FEF7D1FE07E02046621C57
:10259000D4B201AA115C2846FEF7C8FE00BF802114
:1025A0002846FEF724FE0028F9D0642C03DA01A89F
:1025B000005D0028D2D1002000901BB030BC5DF837
:1025C00014FB000010B54FF44070FEF7E3F927202C
:1025D000154908700020487088700120C8700846AE
:1025E000FEF7A0F94FF44070FEF7D4F907200E492A
:1025F000087001204870002088700120C8700846CB
:10260000FEF790F94FF4C060FEF7C4F91C200649AC
:10261000087001204870002088700120C8700846AA
:10262000FEF780F910BD00000800002010B5FEF78D
:102630000DFA00F07BF801210846FEF7E7F90121C9
:102640000420FEF7E3F901210820FEF7DFF901215C
:102650001020FEF7DBF901212020FEF7D7F9012138
:102660004020FEF7D3F901218020FEF7CFF90121A8
:102670000802FEF7CBF901218803FEF7C7F9012113
:102680004804FEF7A3F901218804FEF79FF9012110
:102690008803FEF79BF901210846FEF787F901211F
:1026A000C802FEF7B3F901210846FEF78FF90121B0
:1026B0000220FEF78BF901210420FEF787F90121A2
:1026C0000820FEF783F901211020FEF77FF9012190
:1026D0004803FEF79BF910BD00B585B02820ADF882
:1026E0000C000120ADF808000220ADF8060007201C
:1026F000ADF810000020ADF80400ADF80000802017
:10270000ADF80E004FF48270ADF802004FF4007087
:10271000ADF80A0069460448FEF7EEFA01210248C6
:10272000FEF7D0FA05B000BD0038004010B5FEF746
:102730008DF94FF48030FEF74BFAFEF7A7FA044606
:10274000012C1ED10020FEF737FAA002FEF772FA24
:10275000A002FEF763FA4FF4E0112004FEF77CFAC2
:102760000120FEF773FA00BF3920FEF7FFF90028B9
:10277000FAD00220FEF77EFA00BFFEF715FA08280D
:10278000FBD110BD10B501210846FEF71FF94FF02F
:102790008040FEF79BFB0D48FEF702FD40F2F31070
:1027A0000A49088040F2CF2088800020C8804880F5
:1027B0004FF08040FEF7A2FC01218807FEF774FB72
:1027C000012211469007FEF78FFC10BD4401002046
:1027D0001FB54FF4E13000900020ADF80400ADF8D3
:1027E0000600ADF80800ADF80C000C20ADF80A00AA
:1027F00069462348FEF72EFD01212148FEF7E2FC41
:10280000012240F225511F48FEF7FEFC4FF4E13053
:1028100000900020ADF80400ADF80600ADF8080007
:10282000ADF80C000C20ADF80A0069461648FEF71A
:1028300011FD012240211448FEF7D0FC012112486D
:10284000FEF7C0FC4FF4E13000900020ADF804002A
:10285000ADF80600ADF80800ADF80C000C20ADF89E
:102860000A0069460748FEF7F5FC01210548FEF716
:10287000A9FC012240F225510248FEF7C5FC1FBD0C
:10288000003801400048004000440040AC280008E7
:1028900000000020D00000007C1300087C29000804
:1028A000D0000020C80400008C13000800000000C5
:1028B0000000000000000000000000000000000018
:1028C000000000000143000100014400010300007A
:1028D0000000014200000000000000014300005A17
:1028E0005A5A5A5A00000000000000000000000080
:1028F00000000000000000000000000000000000D8
:1029000000000000000000000000000000000000C7
:1029100000000000000000000000000000000000B7
:1029200000000000000000000000000000000000A7
:102930000000000000000000000000000000000097
:102940000000000000000000000000000000000087
:102950000000000000000000000000000000000077
:102960000000000000000000010203040102030453
:0C29700006070809020406080000000029
:0400000508000131BD
:00000001FF
